:100000000C94B5020C94FC020C94FC020C94FC02BF
:100010000C94FC020C94FC020C94FC020C94FC0268
:100020000C94FC020C94FC020C9415210C94D1202D
:100030000C94D5270C94FC020C94FC020C94FC024A
:100040000C94FC020C94FC020C94FC020C94FC0238
:100050000C94FC020C94B1270C94FC020C94FC024E
:100060000C94FC020C94FC020C94FC020C94FC0218
:100070000C94FC020C94FC020C94FC020C94FC0208
:100080000C94FC020C94FC020C94FC020C94FC02F8
:100090000C94FC020C94FC020C94FC020C94FC02E8
:1000A0000C94FC020C94FC020C94FC020008AAFFC5
:1000B000FFFF00000000000855FFFFFF00000000E8
:1000C000000800FFFFFF0000000000010000FFFF2C
:1000D0000000000005010902A10185020901A1003B
:1000E00005091901290515002501950575018102EC
:1000F0009501750381010501093009311581257FBD
:1001000095027508810609381581257F95017508C6
:100110008106050C0A38021581257F950175088135
:1001200006C0C005010980A101850319012AB70095
:10013000150126B700950175108100C0050C090155
:10014000A101850419012AA002150126A00295012A
:1001500075108100C005010906A101850505071973
:10016000E029E715002501950875018102050719A9
:100170000029EF1500250195F07501810205081988
:10018000012905950575019102950175039101C03D
:100190000660FF0961A1010962150026FF00952094
:1001A000750881020963150026FF009520750891E6
:1001B00002C005010906A101050719E029E715009C
:1001C00025019508750181029501750881010507D2
:1001D000190029FF150026FF009506750881000506
:1001E000081901290595057501910295017503917D
:1001F00001C000010101010101010101020202022D
:1002000002020202020303030303030303040404C0
:100210000404040405050505050606060606070789
:1002200007070708080808090909090A0A0A0B0B41
:100230000B0C0C0C0D0D0D0E0E0E0F0F0F101011E0
:100240001111121213131414151516161717181866
:1002500019191A1A1B1B1C1D1D1E1E1F20202122CE
:1002600022232424252626272829292A2B2C2D2D14
:100270002E2F30313232333435363738393A3B3C31
:100280003D3E3F404142434445464748494A4C4D24
:100290004E4F50515354555658595A5B5D5E5F61ED
:1002A0006264656668696B6C6D6F70727375777880
:1002B0007A7B7D7E8082838587888A8C8E8F9193DE
:1002C0009596989A9C9EA0A2A3A5A7A9ABADAFB105
:1002D000B3B5B7BABCBEC0C2C4C6C9CBCDCFD1D4EA
:1002E000D6D8DBDDDFE2E4E7E9EBEEF0F3F5F8FA90
:1002F000FDFFFFAA7F55402223252628292A2C2DE1
:100300002F3032333536383A3B3D3E404243454745
:10031000494A4C4E5051535557595A5C5E6062647D
:100320006668696B6D6F71737577797B7D7F81838B
:100330008587898A8C8E90929496989A9C9E9FA18C
:10034000A3A5A7A8AAACAEAFB1B3B4B6B8B9BBBCAD
:10035000BEBFC1C2C3C5C6C7C9CACBCCCDCED0D122
:10036000D2D2D3D4D5D6D7D7D8D9D9DADADBDBDB1A
:10037000DCDCDCDCDCDDDDDDDDDCDCDCDCDCDBDBBB
:10038000DBDADAD9D9D8D7D7D6D5D4D3D2D2D1D00F
:10039000CECDCCCBCAC9C7C6C5C3C2C1BFBEBCBB0C
:1003A000B9B8B6B4B3B1AFAEACAAA8A7A5A3A19F84
:1003B0009E9C9A98969492908E8C8A898785838148
:1003C0007F7D7B79777573716F6D6B696866646229
:1003D000605E5C5A5957555351504E4C4A494745F7
:1003E0004342403E3D3B3A3836353332302F2D2C98
:1003F0002A29282625232239001F00200021000158
:1004000051025103513D00010001000100010001B2
:1004100000010001000100000000000000000000D9
:1004200000000000000000000000007E0F00D4FF6C
:10043000FFFFC70000007800000000000000002A55
:100440002B28000000000000000000000000000059
:10045000000029000000002C1E3420212224342614
:1004600027252E362D3738271E1F2021222324250D
:10047000263333362E37381F0405060708090A0BC2
:100480000C0D0E0F101112131415161718191A1B34
:100490001C1D2F3130232D350405060708090A0BD2
:1004A0000C0D0E0F101112131415161718191A1B14
:1004B0001C1D2F3130354CCA00C000B600AC000006
:1004C0000032190A00047F3F1F643214643214782A
:1004D0003C1E1E140A0509025B00030100A0FA0974
:1004E0000400000103010100092111010001224063
:1004F000000705810308000A090401000203000047
:1005000000092111010001222200070582032000B9
:100510000107050303200001090402000103000094
:100520000009211101000122BC00070584032000FD
:100530000A12011001000000084B411500010001E2
:1005400002030104033000000006034100380000EC
:10055000001203410074006C0061006E00740069B9
:100560000073000000040309040011241FBECFEF34
:10057000DAE0DEBFCDBF04B603FE27C080918F0650
:1005800090919006A0919106B09192068730904B81
:10059000A740B04BD1F410928F06109290061092A3
:1005A00091061092920614BE84B7877F84BF0FB65F
:1005B000F894A89580916000886180936000109203
:1005C00060000FBEE0E0F8E3099526E0A2E9B1E0A3
:1005D00001C01D92AF38B207E1F711E0A0E0B1E031
:1005E000EAE6F3E502C005900D92A239B107D9F70A
:1005F0000E9403220C9468290C940000E8EDF0E0BE
:1006000080818E7F80831092E2001092DA00109237
:10061000E100A0EEB0E08C9181608C9380818F77B7
:10062000808319BCA7EDB0E08C918E7F8C93808184
:100630008F7E80831092550608952091E4003091BA
:10064000E50095E6A9012091EC00822F817020FF42
:1006500006C08091E80080FF06C080E008952091E8
:10066000E80022FD1AC080918A06882389F085302F
:1006700089F08091EB0085FD0FC02091E40030915E
:10068000E50042175307F9F29150E1F684E008952E
:1006900082E0089583E0089581E00895EF92FF924B
:1006A0000F931F93CF937C018B010E941D03C82FD2
:1006B000811117C08091E80085FD0BC08091E80092
:1006C0008E778093E8000E941D03882399F3C82F3A
:1006D00008C0F70181917F018093F1000150110959
:1006E00049F78C2FCF911F910F91FF90EF900895B4
:1006F000CF93FC0180918A06843001F5C091E90016
:10070000CF702091EC00922F917020FD90E8C92BC2
:1007100082E08093E9008091E80080FF0CC050E007
:1007200040E060E270E0CF010E944E038091E8005B
:100730008E778093E800CF70C093E900CF91089541
:100740008091820687FF13C08091E80082FF06C077
:100750008091E8008B778093E80004C080918A063E
:100760008111F2CF089580918A068823D9F3809170
:10077000E80080FFF8CF8091E8008E77ECCF982FCB
:100780009093E900242F762F50E0891731F0709173
:10079000EC002091ED005091F00021FD07C09F5F1B
:1007A000973071F78093E90081E008953091EB0074
:1007B0003E7F3093EB003091ED003D7F3093ED00B4
:1007C0003091EB0031603093EB007093EC0020939C
:1007D000ED005093F0002091EE0027FDE0CF80E087
:1007E0000895CF92DF92EF92FF920F931F93CF93D2
:1007F000DF93C8EDD0E088818F7E8883E7EDF0E05D
:1008000080818160808384E082BF81E0809355068F
:1008100088818E7F888302EE10E0F80110821092AA
:10082000DA0081EEC82ED12CF601108288818F77F4
:10083000888388818068888388818F7D888319BCBC
:1008400010928A06109281061092800610927F06FE
:1008500090EEE92EF12CF70180818B7F80838881D7
:100860008160888342E060E080E00E94BF03F6017F
:1008700080818E7F8083F801808181608083808188
:1008800088608083F70180818E7F8083888180618A
:100890008883DF91CF911F910F91FF90EF90DF90B0
:1008A000CF900895FC018091880690918906861763
:1008B0009707A0F06115710529F49091E8009E77E3
:1008C0009093E80090E06115710551F4911108C012
:1008D0008091E80082FF34C080E00895BC01F2CF2F
:1008E00080918A068823C1F18530C1F18091E800AA
:1008F00083FD30C08091E80082FDEACF8091E8005E
:1009000080FFE1CF8091F3002091F200382F611534
:10091000710519F02830310558F091E02830310583
:1009200009F090E02091E8002E772093E800CBCFEB
:1009300081918093F100615071092F5F3F4FE7CFA4
:1009400080918A06882341F0853041F08091E8004B
:1009500083FFBECF81E0089582E0089583E008958B
:1009600080918A06843011F482E0089581E0089530
:10097000089580915E06089590914406803F41F469
:100980008091450687FD10924506992371F00895E0
:10099000813F29F4809145061816ACF3F6CF823FCB
:1009A00081F497FFF2CF1092440680914506909112
:1009B0004606892B90914706892B49F710923F06EE
:1009C0000895833F19F4191674F3DFCF893F39F482
:1009D000809146061816CCF610924606D6CF8A3F6E
:1009E00029F48091460687FFD0CFF6CF8B3F39F4AC
:1009F0008091470687FFC9CF10924706C6CF8C3F2C
:100A000029F4809147061816BCF3BFCF843F31F418
:100A1000809143068E7F80934306B7CF853F21F4B4
:100A2000809143068D7FF7CF863F21F48091430666
:100A30008B7FF1CF873F21F480914306877FEBCFF7
:100A4000883F21F4809143068F7EE5CF8D3F31F4BE
:100A5000809129068E7F8093290697CF8E3F21F4BF
:100A6000809129068D7FF7CF8F3F09F08ECF80913F
:100A700029068B7FF0CF8091290680FD16C081FD6D
:100A800016C082FD16C080913F068823A1F08832EF
:100A900080F428E0829FC001112468E270E00E9487
:100AA0002A28862F672B39F0089582E0089584E084
:100AB000089588E0089581E008958091290680FDD9
:100AC00014C081FD14C082FD16C080913F068823AA
:100AD00081F0843180F422E3829FC001112464E11B
:100AE00070E00E942A28862F08958CE0089589E1FD
:100AF000089585E0089582E30895803F31F40E94CF
:100B00005D058195809345060895813F19F40E9403
:100B10005D05F8CF823F31F40E945D058195809399
:100B200044060895833F19F40E945D05F8CF893F7C
:100B300029F40E943B058093460608958A3F21F4DC
:100B40000E943B058195F7CF8B3F31F40E943B0516
:100B500081958093470608958C3F19F40E943B05C8
:100B6000F8CF843F31F4809143068160809343063F
:100B70000895853F21F4809143068260F7CF863F38
:100B800021F4809143068460F1CF873F21F4809166
:100B900043068860EBCF883F21F480914306806153
:100BA000E5CF8D3F31F4809129068160809329063D
:100BB00008958E3F21F4809129068260F7CF8F3F00
:100BC000B9F7809129068460F1CF9C014FB7F89462
:100BD0008091510690915206A0915306B09154060F
:100BE0004FBF821B930B08952FB7F8948091510645
:100BF00090915206A0915306B09154062FBF0895CC
:100C0000E0913106F0913206309749F082E080930E
:100C100042060480F581E02D82E496E009950E9469
:100C2000F40590933E0680933D0608958091240636
:100C30008111109224060895809123069091220636
:100C4000892B90912106892B809392019091240603
:100C50009923A1F0892B8093920180911F01882311
:100C600041F180912F0687FF24C08EE1E4E9F1E095
:100C700090E0815000F591110E941606E091310636
:100C8000F09132063097E1F080911F01882359F0EE
:100C900080912F0687FF07C0809192018093930176
:100CA00085E0809392010280F381E02D82E991E05A
:100CB000099486E0DBCF21912223D9F29F5FD9CF1F
:100CC000089590911F019923D1F090912F0697FFDD
:100CD00016C0E82FE695E695E695EE31E0F4F0E0F3
:100CE000EE56FE4F282F277081E090E001C0880F5C
:100CF0002A95EAF780959281892382830895E4E911
:100D0000F1E09191891303C0DF0111971C9291E0EA
:100D1000EA39F907B1F7089590911F019923C1F0BD
:100D200090912F0697FF14C0E82FE695E695E6957B
:100D3000EE31F8F4F0E0EE56FE4F877021E030E03F
:100D400001C0220F8A95EAF78281822B828308955F
:100D5000A4E9B1E0EFEF90E02D91821751F0EF3F61
:100D600019F4211101C0E92F9F5F9630A9F7EF3FD9
:100D700009F408950E2E000CFF0BEE56FE4FE6CF41
:100D8000990F990F890F982F97708695869586955C
:100D900025E0829FF0011124E55EF94F50E040E02C
:100DA00080E0219130E0092E02C0369527950A9403
:100DB000E2F721703327042E01C0220F0A94EAF7CC
:100DC000822B4F5F5F4F4530510559F70895990FBA
:100DD000990F890F982F977041E001C0440F9A95A1
:100DE000EAF786958695869595E0899FF00111240E
:100DF000E55EF94F30E020E070E05191DF0111979E
:100E0000CB01022E02C0969587950A94E2F7817075
:100E100081958527842385278C932F5F3F4F25302D
:100E2000310559F7089580911A069091E9059813B4
:100E300001C008958F5F8770FACF882341F08095B5
:100E4000909123068923809323060C941C06089511
:100E5000882339F090912306982B909323060C94C5
:100E60001C0608952091DC023091DD022817390715
:100E700071F09093DD028093DC02E0913106F091F5
:100E80003206309721F00084F185E02D0994089511
:100E90002091DA023091DB022817390771F0909324
:100EA000DB028093DA02E0913106F091320630974E
:100EB00021F00680F781E02D099408951092220612
:100EC000109221060E941C0686E0E2E4F6E0DF01B3
:100ED0001D928A95E9F710923F06109229060E940A
:100EE000000690E080E00E94480790E080E00C94CB
:100EF0003207609325067093260680932706909309
:100F000028060C945E07E0913106F0913206309786
:100F100021F00190F081E02D099480E0089588236C
:100F200009F459C0823871F40E94830781FF53C0CD
:100F300089E30E948C060E941C0689E30E946106D8
:100F40000C941C06833859F40E94830780FF43C029
:100F500083E50E948C060E941C0683E5EFCF84384F
:100F600059F40E94830782FF36C087E40E948C06F2
:100F70000E941C0687E4E2CF9CEF980F913AF0F2B2
:100F800090E2980F983088F4877021E030E0A90152
:100F900002C0440F551F8A95E2F7CA0180959091CF
:100FA0002306892380932306CBCF9BE5980F9330AC
:100FB00020F490E080E00C94480798E5980F973172
:100FC00020F490E080E00C943207803F20F00E94F3
:100FD000BC040C9400060895FA01811101C0FB01C4
:100FE000099480915606982F9E7F61F481708260EB
:100FF0008093560680915906813A18F080EA8093D2
:10100000590608958635B0F381708465F1CFAF92AB
:10101000BF92DF92EF92FF920F931F93CF93DF93D4
:10102000182F062FE901413A08F040EAE42FF0E0DA
:10103000EE50FE4F011110C0E4915E2F4E2F4983F8
:10104000E8835A83DF91CF911F910F91FF90EF902A
:10105000DF90BF90AF900895202F30E04491D42EC0
:10106000E42EF12C56E0159FC0011124EFEFF0E0C3
:10107000BF010E941628812F90E0880F991F55E527
:10108000569FD001579FB00D11248A1B9B0B982FA0
:10109000990F890F5F01A21AB30AAE9CD001AF9CD1
:1010A000B00DBE9CB00D11245B2F089F8001112450
:1010B000012F11275F01A01AB10AAE9C8001AF9CDD
:1010C000100DBE9C100D11245F01A81AB108A29E3C
:1010D000C001A39E900DB29E900D1124892F9927D7
:1010E000E81BF90BEE9DC001EF9D900DFE9D900D4C
:1010F0001124E92F62307105A1F050F461157105DA
:1011000009F49DCF6130710581F0EB2F512F97CFFE
:101110006430710569F080F06630710509F48FCF95
:10112000F4CFE42F4B2F592F8ACFE42F412F87CFB5
:10113000EB2F542F492F83CF4B2F5D2DE12F7FCFE6
:1011400090912F0692FF06C0282F28712830F9F4BD
:10115000877F846093FF06C0282F28712831F1F41F
:10116000877E84612091300620FF06C0382F3871B9
:101170003830D9F4877F816021FF06C0282F28717D
:101180002831D1F4877E816194FD877E0895282FD0
:1011900024712430F9F68B7F8860DCCF282F2471EE
:1011A000243101F78B7E8861DDCF382F31713130EA
:1011B00019F78E7F8860E0CF282F2171213121F728
:1011C0008E7E8861E1CFCF93DF9300D00F92CDB7B1
:1011D000DEB790918A06943011F589837B836A8308
:1011E0009093E9008FEF9091E800815095FD06C043
:1011F00095ED9A95F1F700008111F5CF8091E80007
:1012000085FF0DC050E040E063E070E0CE01019644
:101210000E944E038091E8008E778093E8000F9043
:101220000F900F90DF91CF910895CF93DF93EC0152
:101230000E94B004823011F0843031F4BE0184E0A9
:10124000DF91CF910C94E308DF91CF910895BC0119
:1012500083E00C94E308CF93DF93EC010E94B00489
:10126000823011F08430F9F484E08093E9008FEF4C
:101270009091E800815095FD06C095ED9A95F1F7A3
:1012800000008111F5CF8091E80085FF0CC050E08F
:1012900040E066E070E0CE010E944E038091E800DD
:1012A0008E778093E800DF91CF910895CF93DF93FD
:1012B000EC010E94B004823011F08430B9F58091C5
:1012C0001F018823B1F180912F0687FF32C060E2B1
:1012D00084E08093E9008FEF9091E800815095FDC4
:1012E00006C095ED9A95F1F700008111F5CF809138
:1012F000E80085FF1BC080911F0170E050E040E0D6
:10130000811104C050E040E068E070E0CE010E942E
:101310004E038091E8008E778093E80080E2FE0122
:10132000AFE5B6E001900D928A95E1F7DF91CF919C
:10133000089568E081E0CDCF81E08093E00080E215
:101340008093D8001092C9008FE19EE40197F1F7D5
:1013500000C0000087E090EBDC0180938F06909343
:101360009006A0939106B093920688E19CE00FB698
:10137000F894A895809360000FBE90936000FFCF13
:10138000CF93C82F882309F4AEC08238C1F40E94DD
:10139000830781FDA8C089E30E948C060E941C0679
:1013A0002FEF81EE94E0215080409040E1F700C0A3
:1013B000000089E30E946106CF910C941C068338DB
:1013C000A1F40E94830780FD8EC083E50E948C06F5
:1013D0000E941C062FEF81EE94E021508040904047
:1013E000E1F700C0000083E5E5CF8438A1F40E9456
:1013F000830782FD78C087E40E948C060E941C0649
:101400002FEF81EE94E0215080409040E1F700C042
:10141000000087E4CFCF8CEF8C0F813A88F5809164
:101420001F01882301F180912F0687FF1CC0EC2F3C
:10143000E695E695E695F0E0EE56FE4F828190E067
:101440004C2F477021E030E002C0220F331F4A9535
:10145000E2F782239323892B79F08C2F0E94610677
:101460000E941C0609C0E4E9F1E08191C817A9F3C4
:1014700021E0EA39F207C9F78C2F0E948C069CCF35
:1014800080E28C0F883068F4C77021E030E001C042
:10149000220FCA95EAF780912306822B80932306B8
:1014A0008BCFEBE5EC0FE33040F4F0E0E55BFE4F73
:1014B000808190E0CF910C944807E8E5EC0FE7318C
:1014C00050F4F0E0EE0FFF1FE25BFE4F8081918150
:1014D000CF910C943207C03F30F08C2F0E947D05D5
:1014E000CF910C940006CF910895CF93C82F0E94FE
:1014F000C009C93349F42FEF87EE93E021508040B3
:101500009040E1F700C000008C2FCF910C948F0722
:101510000F931F93CF93DF93C62FD42F022FFC017D
:1015200082818823A1F06093E1050E94F4059093E5
:10153000D9028093D802C77081E001C0880FCA9594
:10154000EAF7DF91CF911F910F910C94280710912A
:10155000E105161335C08091D8029091D9020E94FE
:10156000E505883C910560F5C0E2CD0F1D17B9F087
:1015700080E2810F883040F4177081E001C0880F4D
:101580001A95EAF70E941D07C83048F481E09D2FA4
:10159000977001C0880F9A95EAF70E942807802F5C
:1015A0000E94750AC83098F4D77081E001C0880F96
:1015B000DA95EAF7DF91CF911F910F910C941D07F7
:1015C000C77081E001C0880FCA95EAF7F3CFDF91B9
:1015D000CF911F910F9108958F929F92AF92BF92DA
:1015E000CF92DF92EF92FF920F931F93CF93DF93EF
:1015F0006CE771E02AE2822E26E0922EC0E0EE2413
:10160000E394F12CDB018D91BD01E82FE295EF70A1
:10161000F0E091A18F70870101C0000F8A95EAF771
:10162000892F802B81A392A1D02FD0959D2392A3A7
:10163000B0EABA95F1F79EE7C92E91E0D92E50E0B5
:1016400040E020E0D6013D916D01A32EA2948FE0F1
:10165000A822B12CD50190968C9190E03F7002C0E9
:10166000959587953A95E2F780FD3FC08E2D042E23
:1016700001C0880F0A94EAF7282B4F5F5F4F443070
:10168000510501F781A18D2381A382A1082B02A31B
:10169000F4018081281759F1208381E0C82BFFEFE6
:1016A0008F1A9F0A81E06E37780709F0ABCFCC2301
:1016B00001F181E08093B4010E94F4059093B3019D
:1016C0008093B2018091B2019091B3010E94E5052F
:1016D000069798F080912A0680934F0680912B06FA
:1016E000809350061092B40108C080E0C5CF80E01E
:1016F000D5CF8091B4018111E5CF8C2FDF91CF91AF
:101700001F910F91FF90EF90DF90CF90BF90AF901F
:101710009F908F900895CF9384E090E00E94BD2821
:10172000C82F81E290E00E94BD28982F8C2FCF9186
:1017300008950F931F93CF93DF9328E0629FE001FA
:10174000112450E0440F551FC40FD51F30E1839F73
:10175000C0011124C80FD91FCE0186960E94BD2852
:10176000082F10E0102F0027CE0187960E94BD2879
:101770009801282BC901DF91CF911F910F910895F6
:10178000462F873038F4723028F4643018F4672F0D
:101790000C94990B90E080E00895CF93DF930E9422
:1017A000C00BEC0182389105A9F1D8F58133910580
:1017B00009F496C048F58932910509F48AC08A97E0
:1017C00009F495C0C11521E5D20708F0BCC0C115C8
:1017D00030E5D30708F014C1C83ED10508F09CC01D
:1017E000C03ED10560F5C83AD10508F087C0C53ABA
:1017F000D10508F0FDC0C130D10509F12097F9F0FD
:10180000C430D105E0F440C08533910509F45AC0D5
:10181000C997C1F680912F06837089F0C0EED0E0A1
:101820000EC0833E910599F170F4803E910501F15F
:10183000823E910539F680912F0682FD21C0CE01AE
:10184000DF91CF910895863E910561F1873E910524
:1018500071F1843E910509F0B5CF8091300681FF8A
:10186000EECF80912F06C7EED0E084FD0DC0E7CF0C
:1018700080912F0680FD12C19091300690FFDFCF3E
:10188000C3EED0E084FFDBCFD0E0C0E0D8CF8091C2
:101890002F0682FD06C19091300690FDBFCF84FFD8
:1018A000CECFF2CF80912F0683FDDDCFC8CF8091C0
:1018B0002F0683FDF9C09091300691FFF0CFC4EE62
:1018C000D0E0BDCF80912F0685FFB9CFC9E2D0E02F
:1018D000B6CF80912F0685FFB2CFC5E3D0E0AFCF62
:1018E00080912F0686FFABCFCAE2D0E0A8CF8091CF
:1018F0002F0686FFA4CFC1E3D0E0A1CFCF3BD10517
:1019000018F6C85AD0E0CC0FDD1FC25BDE4F09903D
:10191000D881C02DD46493CFC11540E2D40758F4C8
:10192000C11581E0D80708F08ACFC03FD10508F47F
:10193000ABCFD06584CFC11590E4D90708F4A4CF0C
:10194000DF70D06A7CCFC11525E5D20700F5C1153F
:1019500034E5D30708F08AC0C11543E5D40708F081
:1019600071C0C11582E5D80708F467C0CE01837045
:10197000992721E030E002C0220F331F8A95E2F759
:10198000C695C69580E2C89FE001112452C0C115DA
:1019900099E5D907A8F4C11528E5D20708F06BC06E
:1019A000C11536E5D30708F06FCF8C2F0E94A00831
:1019B000C82FD0E0DC2FCC27CC27DF71D0623FCFFF
:1019C000C1154AE5D40708F45BC0CE0190568115D5
:1019D000904208F059CF8D2F8F710E94A00890E09F
:1019E000982F882788279F719C012C2BE901E6CF2F
:1019F000C55AD0E0C55BDE4FC881D0E0D0641FCFB0
:101A0000CE01E4E096958795EA95E1F783702C2F57
:101A100026952695237040E2249F90011124382BAF
:101A20008C2F8370C1E0D0E002C0CC0FDD1F8A95FF
:101A3000E2F7C22BD32BDC6802CFDC2FCC27C16F9F
:101A4000D06AFDCECE018370992721E030E002C03C
:101A5000220F331F8A95E2F7C695C69590E2C99F7B
:101A6000E0011124C22BD32BDA68E9CEDC2FCC277E
:101A7000C46FD06AE4CEDC2FCC27C06FD06ADFCE33
:101A80008C2F8F700E94A00834E0D695C7953A95A8
:101A9000E1F7CF709C2FEC01D069D1CEC9E3D0E043
:101AA000CECEC2EED0E0CBCEC6EED0E0C8CEBF9256
:101AB000CF92DF92EF92FF920F931F93CF93DF931A
:101AC0008C01C0908B06D0908C06E0908D06F09033
:101AD0008E068091250690912606A0912706B0914A
:101AE0002806C82AD92AEA2AFB2ACFE1D0E0BC2E50
:101AF000D701C6010C2E04C0B695A795979587957A
:101B00000A94D2F780FD0EC0219788F7B12C8B2D57
:101B1000DF91CF911F910F91FF90EF90DF90CF90C9
:101B2000BF900895B8018C2F0E94CD0B019761F3EF
:101B3000EECFCF93DF93EC010E94570DBE01DF91F2
:101B4000CF910C94CD0B0E94990D292F2F70929557
:101B50009F7092509E3078F4E92FF0E0E659F64DF0
:101B60000C943E28803F19F020F4883E20F481E058
:101B70000895843FE1F380E00895883EC0F3813FFB
:101B8000D1F7F5CF822F86958695869508956F9229
:101B90007F928F929F92AF92BF92CF92DF92EF92FD
:101BA000FF920F931F93CF93DF9387EFC82E83E0AD
:101BB000D82E0EE310E0E801609736011CC0F50155
:101BC00085909490692DC7010E94D128682DC70186
:101BD00001960E94D12882E0A80EB11C82E0E80E96
:101BE000F11CCE15DF0559F788E0680E711C2896A8
:101BF0000C171D0731F07E0188E0E81AF108530147
:101C0000DECF005F1F4F80E1C80ED11C0E3A1105D8
:101C100091F6DF91CF911F910F91FF90EF90DF90A0
:101C2000CF90BF90AF909F908F907F906F900895CE
:101C3000CF93DF93C6E9D0E060E0CE010E94D128C7
:101C40002196C11584E0D807B9F7DF91CF910895A7
:101C5000CF93C82F6FEF811162E282E290E00E9481
:101C6000D1286FEFC11162E083E290E00E94D12899
:101C70006FEFC11168E284E290E0CF910C94D1281B
:101C80006CEE7EEF90E080E00E94EF2860E082E062
:101C900090E00E94D12860E083E090E00E94D1288B
:101CA00010922506109226061092270610922806FA
:101CB00060E084E090E00E94D12860E081E290E062
:101CC0000E94D12860E085E090E00E94D12860E089
:101CD00086E090E00E94D1286FEF87E090E00E94BC
:101CE000D12840E050E0BA0188E090E00E94E3286B
:101CF00060E08DE090E00E94D12840E050E0BA0121
:101D000088E190E00E94E32860E087E190E00E9493
:101D1000D12840E050E0BA018CE190E00E94E32835
:101D200060E080E290E00E94D12840E050E0BA01FB
:101D30008FE090E00E94E32840E050E0BA0183E1A8
:101D400090E00C94E328CF92DF92EF92FF926B0128
:101D50007C010E94F107B701A60188E090E0FF90A6
:101D6000EF90DF90CF900C94E32880915A06833057
:101D700018F48F5F80935A0660915606709157064B
:101D800080915806909159060C94A30E80915A06A2
:101D9000882319F0815080935A06609156067091FD
:101DA000570680915806909159060C94A30EE6E5CB
:101DB000F6E083E0808311828FEF828380EA838361
:101DC000148260817181828193810C94A30E1092A0
:101DD000230680911F01E4E9F1E0882359F0809106
:101DE0002F0687FF07C08EE1DF011D928A95E9F774
:101DF0000C945E0786E0F8CF1F93CF93DF93CDB7A7
:101E0000DEB7AA970FB6F894DEBF0FBECDBF82E84B
:101E100096E02091F100DC012D93CD01B6E08A38E7
:101E20009B07B9F780918306833009F471C0B8F439
:101E3000813009F448C0823009F4B2C08091E800D2
:101E400083FF3AC180918206909183069A3008F010
:101E500033C1E92FF0E0E858F64D0C943E288A3063
:101E600009F48DC08B3009F470C0893039F7809146
:101E70008206813219F78091860690918706009735
:101E800011F00297D9F68091E800877F8093E800EF
:101E90008091E80082FF37C09091F3008091F200BA
:101EA000029729F48091F1008B7F813021F4809199
:101EB000F10080935E068091E8008B778093E800C4
:101EC0000E94A003BBCF80918206813A09F0B6CF71
:101ED0008091E800877F8093E8008091860690914A
:101EE0008706892B61F460E28FE596E070E00E943E
:101EF00052048091E8008B778093E8009FCF60E0E8
:101F000090E080E0F3CF80918A068111C1CF96CF17
:101F100080918206813A09F091CF80918606909156
:101F20008706892B09F08ACF8091E800877F80930C
:101F3000E8008091E80080FFFCCF80911F01809332
:101F4000F1008091E8008E77B9CF809182068132CE
:101F500009F074CF8091860690918706892B09F04D
:101F60006DCF8091E800877F8093E8000E94A003F6
:101F70008091840680931F010E94E70E5FCF8091BD
:101F80008206813209F05ACF8091E800877F8093E2
:101F9000E8000E94A0038091850680935D064ECFE5
:101FA00080918206813A09F049CF8091E800877FCD
:101FB0008093E8008091E80080FFFCCF80915D066F
:101FC000BECF803899F0823809F076C080918606BD
:101FD0008F70873008F070C08093E9008091EB002B
:101FE00085FB882780F91092E90006C080917F0662
:101FF00090918006911182609091E800977F909374
:10200000E8008093F1001092F1008091E8008E7753
:10201000C0C1882309F4ADC1823009F04DC0809160
:1020200084068111B1C1809186068F702FEF280F31
:10203000263008F041C08093E9002091EB0020FF9A
:10204000A3C1933031F48091EB0080628093EB0068
:102050009BC19091EB0090619093EB0021E030E008
:1020600001C0220F8A95EAF72093EA001092EA0055
:102070008091EB008860EACF81111EC01091840628
:102080001F778091E3008078812B8093E30080911B
:10209000E800877F8093E8000E94A0038091E80019
:1020A00080FFFCCF8091E30080688093E30082E0B2
:1020B000111183E080938A068091E80083FF0AC0B3
:1020C0008091E800877F8093E8008091EB00806238
:1020D0008093EB00AA960FB6F894DEBF0FBECDBF7B
:1020E000DF91CF911F9108958058823028F7209179
:1020F0008406309185062C3DE3E03E07A1F583E0A0
:102100008A838AE289834FB7F894DE01139620E030
:102110003EE051E2E32FF0E050935700E49120FFBE
:1021200003C0E295EF703F5FEF708E2F90E0EA30D2
:10213000C0F0C7968D939D932F5F243159F74FBF01
:102140008091E800877F8093E8006AE270E0CE012A
:1021500001960E9452048091E8008B778093E800FA
:10216000ABCFC096E7CF8091860690918706432F2C
:1021700055274330510509F44AC078F541305105DF
:1021800009F485C08BE590E0E6EDF4E042305105BE
:1021900009F092CF2091E800277F2093E80020915A
:1021A0008806309189068217930708F49C0140E065
:1021B0002115310509F070C041116EC08091E80011
:1021C00082FDC9CF80918A06882329F2853019F2D1
:1021D0008091E80083FFF2CFBECF4132510509F470
:1021E00047C04232510509F067CF8330910508F0AE
:1021F00063CFFC01EE0FFF1FEB57FE4F0190F08104
:10220000E02D8E579E4FDC018C9190E01DC033274E
:1022100021303105E9F02115310579F02230310501
:10222000F9F02330310509F047CFE3E4F5E0E4911C
:102230008E2F90E0E3E4F5E007C0E5E6F5E0E491F9
:102240008E2F90E0E5E6F5E0009709F435CFA2CFB8
:10225000E1E5F5E0E4918E2F90E0E1E5F5E0F4CFE3
:10226000E9E4F5E0E4918E2F90E0E9E4F5E0ECCFCD
:102270008330910508F020CF880F991FFC01E557A6
:10228000FE4F0190F081E02D89E090E083CF82E164
:1022900090E0E1E3F5E07ECF80918A06882309F49F
:1022A0005ACF853009F457CF8091E80083FD53CF92
:1022B0008091E80082FD82CF8091E80080FF78CF96
:1022C0009091F3008091F2002115310519F08830CA
:1022D000910550F041E0089709F040E08091E80056
:1022E0008E778093E80064CF44914093F10031965B
:1022F000215031090196E8CF803809F0DDCE809178
:10230000E800877F8093E800809181068093F10048
:102310007CCE8111D1CE10918406123008F0CCCE43
:102320008091E800877F8093E800109381060E94E7
:10233000A003112311F084E005C08091E30087FD24
:10234000FACF81E080938A0642E061EC81E00E944E
:10235000BF0342E261EC84E00E94BF0342E261EC11
:1023600082E00E94BF0342E260EC83E00E94BF0370
:10237000A3CE80918406813009F09ECE81E0933017
:1023800009F080E0809380061092E9008091E800D7
:10239000877F8093E8000E94A0038ECE609156064E
:1023A000669570E04BE050E084E091E00E94B02838
:1023B000892B19F481E080934D060E94F4059093D7
:1023C00036068093350608955F926F927F928F92C2
:1023D0009F92AF92BF92CF92DF92EF92FF920F93B4
:1023E0001F93CF93DF9300D000D00F92CDB7DEB70D
:1023F0008091560680FD0AC0E8EBF1E01182108260
:102400001282339622E0E432F207C1F780902D0663
:1024100090902E068114910409F455C0D12CC12C42
:1024200066246394712C53E0552E80914E069301DF
:102430000C2C01C0220F0A94EAF7822309F43BC056
:10244000F601EE0FFF1FE80DF91DE590F490E11481
:10245000F104C9F145E050E0B701CE0101960E94B8
:10246000A72809810F3F39F18A81800F9927991F89
:102470008532910514F084E290E05C01AA0CBB1C4B
:102480008A0D9B1DFC01E854FE4F5F01059D8001F4
:10249000112408541E4F0A151B0520F0F5E0EF0E1D
:1024A000F11CD8CF98014D816C818B810E94070867
:1024B0000D5F1F4FF0CF2FEFC21AD20A38E0C316BC
:1024C000D10409F0B2CF279A35B13F7725B1206802
:1024D0004FB7F89488EB91E0FC015191CF0168E08F
:1024E00025B9000000C057FF35B9550F000000C0E6
:1024F00000C000C035B900C06A9591F7F2E084329F
:102500009F0751F74FBF8FE594E00197F1F700C0A7
:1025100000000F900F900F900F900F90DF91CF91D0
:102520001F910F91FF90EF90DF90CF90BF90AF90F1
:102530009F908F907F906F905F9008958F929F9261
:10254000AF92BF92CF92DF92EF92FF920F931F93C1
:10255000CF93DF93FC01B280948081E08483C4E256
:10256000D2E008EB11E08BE4A82E88248394EE24BB
:10257000EA94F12C2BE4C22ED12C91101DC01B82A9
:102580001A8298014A81698188810E9407082596EC
:102590000D5F1F4F82E0C83DD80779F7DF91CF91DB
:1025A0001F910F91FF90EF90DF90CF90BF90AF9071
:1025B0009F908F900C94E4112B81222309F12150DC
:1025C0002B833C818A2D821B311101C0822F909177
:1025D0005906899FC0011124B6010E9416286A83FA
:1025E000211104C0332311F01C82AB8222E02B1591
:1025F00040F2809157068883809158068983C1CF25
:102600000E949728823091400CF0BBCF82E08B155E
:10261000C0F40E949728B7010E942A28888322E0EC
:102620002B1590F40E949728209158062695622F2A
:1026300070E00E942A28280F29831A82AB828C829C
:10264000A0CF80915706EACF20915806F5CFEF92A0
:10265000FF921F93CF93DF93EC0188EBE82E81E08C
:10266000F82E10E08C819701409159066091580630
:10267000810F0E940708195F83E0E80EF11C1C3FE0
:1026800089F70E94E4119A818C8190FF08C08F5FC6
:102690008C83DF91CF911F91FF90EF90089581502F
:1026A000F7CFBF92CF92DF92EF92FF920F931F93DB
:1026B000CF93DF93FC018281DD24DA9480FD02C098
:1026C000DD24D39408EB11E0D0E0C0E024E2B22E88
:1026D000F80111821082128294E0E92EF12CC12CB3
:1026E0008091B5018C0D85320CF43DC06B2D0E949C
:1026F0000828892F082E000C990B8C179D0791F440
:10270000809159068E9DA0018F9D500D11245595E5
:1027100047955595479598016091580680915706C1
:102720000E940708CD0CF1E0EF1AF108C9F62196D6
:102730000D5F1F4FC432D10559F60E94E4118091FC
:10274000B50191E0D91215C0811111C083E28093C7
:10275000B501DF91CF911F910F91FF90EF90DF9026
:10276000CF90BF90089587FFC5CF8C5DC3CF8150B8
:10277000EECF90E00196BE010E942A28E8CF0F9389
:102780001F93CF93DF93C8EBD1E0FE01118210823B
:102790001282339682E0E432F807C1F710E000E0DD
:1027A0008091B601082E000C990B081719078CF1BF
:1027B00080911001082E000C990B801791074CF1A5
:1027C0009E014091590660915806809157060E94DB
:1027D00007080F5F1F4F23960432110509F70E9467
:1027E000E41180910F019091B601980F9093B6017A
:1027F00020911001280F20931001121614F4933227
:102800001CF0819580930F01DF91CF911F910F9163
:102810000895198218821A82DCCFEF92FF920F93EB
:102820001F93CF93DF93EC018C819D810196817082
:1028300099279D838C8388EBE82E81E0F82E10E0A9
:1028400005E5812F86952C813D81820F932F911D67
:10285000817097014091590660915806809F802DA4
:1028600011240E9407081F5F83E0E80EF11C143258
:1028700041F7DF91CF911F910F91FF90EF900C9452
:10288000E411EF92FF920F931F93CF93DF938C018C
:10289000C8EBD1E0F12CE12CF8019481609158064D
:1028A00080915706F2E1EF16F104FCF49923F9F058
:1028B0009E01409159060E9407082FEFE21AF20A82
:1028C000239684E2E816F10439F70E94E411F80136
:1028D000848190E00196817099278483DF91CF9164
:1028E0001F910F91FF90EF900895992309F39E0196
:1028F00040E0E1CF9091560690FF0CC0E8EBF1E08C
:10290000818360834283339692E0E432F907C1F712
:102910000C94E41108950F931F93CF93DF9300D08D
:102920000F92CDB7DEB78C018091B70181110AC03B
:102930009E012F5F3F4F40EA6FEF0E9407088A8198
:102940008093B701F8016481613069F08091B7012B
:1029500040E0662361F040E0623011F44091B7013D
:1029600080E060E004C06091B70140E080E00E9438
:102970007A14F801848190E0019663E070E00E948F
:102980002A2884830F900F900F90DF91CF911F9191
:102990000F910895CF93DF9300D00F92CDB7DEB79C
:1029A0009091560690FF0AC09E012F5F3F4F0E94F4
:1029B00007084B8169818A810E947A140F900F90D9
:1029C0000F90DF91CF910895CF93DF93EC01EC81CD
:1029D000F0E0E950FD4F4491E6E5F6E06281818147
:1029E0000E94CA148C818F5F8C83DF91CF910895F0
:1029F000CF93DF93EC01E6E5F6E0438162818C81C1
:102A00000E94CA148C818F5F8C83DF91CF910895CF
:102A10005F926F927F928F929F92AF92BF92CF926E
:102A2000DF92EF92FF920F931F93CF93DF9300D02B
:102A30000F92CDB7DEB7182F762E042F622E90910D
:102A4000560690FF29C0E92FE695AE2FB0E0A05EB4
:102A5000BE4F8C9180934C069E7F923081F59E01F3
:102A60002F5F3F4F812F0E9407084B8169818A8128
:102A70000E947A14109357067092580600935906D4
:102A8000662051F060915606709157068091580665
:102A9000909159060E94A30E0F900F900F90DF9116
:102AA000CF911F910F91FF90EF90DF90CF90BF904B
:102AB000AF909F908F907F906F905F90089582303D
:102AC00019F400915906D6CF863019F410915706A3
:102AD000D1CF8930D9F3893169F6E9518E2F8170D0
:102AE000582EE695F0E0EE50FD4FA590B490BB2433
:102AF00088EBE82E81E0F82ED12CC12C94E2892EAF
:102B0000912CC601B4010E941628812F511013C0C8
:102B1000860F9701402F672D0E940708CA0CDB1C07
:102B200083E0E80EF11C84E2E81682E0F80649F73B
:102B30000E94E4119FCF861BECCF9091560690FF28
:102B400036C09170811129C0926090935606662319
:102B500051F06091560670915706809158069091F9
:102B600059060E94A30E60915606669570E04BE0F0
:102B700050E084E091E00E94B028892BA9F01092E7
:102B80004D0681E08093380620E04091590660911F
:102B90005806809157060C9408158B3210F09465F6
:102BA000D4CF880F982BD1CF0E94CE11EACF0895B1
:102BB00021E030E0A90102C0440F551F8A95E2F7D9
:102BC000CA0120914E06662399F0822B80934E060F
:102BD00080914D06811106C08091560660E0869571
:102BE0000E949D158091560680FD05C00C94E4114D
:102BF00080958223EBCF0895CF92DF92EF92FF92E0
:102C00006B017C0160E0C114D104E104F10441F0E6
:102C1000DC01C601B695A79597958795682F6170D9
:102C200081E00E94D81560E0C114D104E104F104F0
:102C300059F0D701C60132E0B695A79597958795CB
:102C40003A95D1F7682F617082E00E94D81560E054
:102C5000C114D104E104F10459F0D701C60123E005
:102C6000B695A795979587952A95D1F7682F6170A6
:102C700083E00E94D815C0928B06D0928C06E09219
:102C80008D06F0928E06FF90EF90DF90CF900C941F
:102C90005E070F931F9360918B0670918C06809155
:102CA0008D0690918E068B019C01067011272227BC
:102CB0003327063011052105310529F468601F917D
:102CC0000F910C94FC15677FFACF0F931F9341E08F
:102CD00050E060E070E004C0440F551F661F771F8E
:102CE0008A95D2F7CB01BA01609570958095909541
:102CF00000918B0610918C0620918D0630918E06E6
:102D000060237123822393231F910F910C94FC1550
:102D1000909120068095892380932006282F277084
:102D200071F4282F082E000C330B9217130639F07C
:102D30008595859585950E946516109220060895C3
:102D40000F931F9341E050E060E070E004C0440F37
:102D5000551F661F771F8A95D2F780918B06909139
:102D60008C06A0918D06B0918E068A019B01082BDE
:102D7000192B2A2B3B2BC901B8011F910F910C94E1
:102D8000FC1560E070E0CB010C94FC1581FB66271C
:102D900060F980E00C94D815809156068695815094
:102DA00009F48AE261E00C949D158091560686959F
:102DB0008F5F8B3208F081E061E00C949D1590915B
:102DC000560690FF07C09695981720F0961710F4B6
:102DD0000C94D51661E00C949D154F925F926F9202
:102DE0007F928F929F92AF92BF92CF92DF92EF929B
:102DF000FF920F931F93CF93DF9300D000D00F92D9
:102E0000CDB7DEB77C01FC0183819481892B31F041
:102E10008081918189238F3F09F0EBC60F900F903D
:102E20000F900F900F90DF91CF911F910F91FF9016
:102E3000EF90DF90CF90BF90AF909F908F907F905A
:102E40006F905F904F9008950E94570D182F682F34
:102E500089819A810E94E70669817A81812F0E9487
:102E6000C00B8C018091E005F70192818111E5C0D2
:102E700091110CC00430FDE51F0709F4ACC008F047
:102E800055C003303DE5130709F476C0F701928180
:102E9000992309F4A3C6980122513F4520313105F9
:102EA00008F075C68FEF93E00E94BD28025156E9E5
:102EB000852E912C81116DC0011147C11C821B828E
:102EC000662463944AE0542E84010F5F1F4FC401AF
:102ED0000E94BD2889831A82882309F45AC09FEF73
:102EE000980F933008F040C18A83698232E0830EE4
:102EF000911CC8010E94BD288B83882309F449C016
:102F00008E010F5F1F4FF80120812223E9F221304B
:102F100009F063C191818281913009F027C10E5F70
:102F20001F4F0E94750A0F5F1F4FEDCF06308DE5D2
:102F3000180709F45CC007309DE5190709F0A6CF12
:102F4000C0901101D090120180908B0690908C0659
:102F5000A0908D06B0908E060E94E70E0E94C116CA
:102F600008ED15E0C016D10609F456C0C8010E944C
:102F7000ED1606501109F6CF0E94E70E0E94C11609
:102F80008EED92E09093DF058093DE0581E08093E3
:102F9000E00580912006877009F440CFF701828117
:102FA000882309F43BCF82E00F900F900F900F9091
:102FB0000F90DF91CF911F910F91FF90EF90DF90D5
:102FC000CF90BF90AF909F908F907F906F905F90C9
:102FD0004F900C9488160E94E70E0E94C11688ED4F
:102FE00095E09093DF058093DE0582E0D0CFC0901E
:102FF0001301D090140180908B0690908C06A090C5
:103000008D06B0908E060E94E70E0E94C1160EED4E
:1030100012E0C016D10659F40E94E70E80928B068A
:1030200090928C06A0928D06B0928E06B2CFC80107
:103030000E94ED160A5F1F4FECCF980123503D45CB
:1030400023303105B8F521E005301D4509F420E0B5
:10305000291709F49ECF813029F08230B9F01092FF
:10306000E00597CF8091DE059091DF05F2E08E3D7F
:103070009F0729F0FC0136972281211105C090930A
:10308000140180931301EBCFCF01F0CF8091DE05C7
:103090009091DF0525E0883D920729F0FC013696E6
:1030A0002281211105C09093120180931101D7CF85
:1030B000CF01F0CF813021F1823009F0E7CE2091AD
:1030C000130130911401A091DE05B091DF0591113B
:1030D00005C095E0A83DB90709F4D8CECD01069604
:1030E0002817390709F4D2CE86E0F70101900D9236
:1030F0008A95E1F78091DE059091DF05069720C063
:103100002091110130911201A091DE05B091DF05EF
:10311000911105C082E0AE3DB80709F4B7CECD01EC
:1031200006972817390709F4B1CE86E0F701019018
:103130000D928A95E1F78091DE059091DF05069664
:103140009093DF058093DE05A1CE8114F4E09F0605
:1031500009F41FCFC4010E94BD28811101C0015094
:103160002FEF821A920AA8CE4801CACE923029F4D3
:103170000E5F1F4F0E94C009D6CE933029F40E5F18
:103180001F4F0E948F07CFCE943019F00F5F1F4F53
:10319000CACE0E5F1F4F30E020E0B8016F5F7F4F57
:1031A000F80141818053990B8A30910558F02150E4
:1031B000310908F4B8CE8FE99FE00197F1F700C01C
:1031C0000000F5CF529EF001539EF00D11249C019A
:1031D0002E0F3F1F842F8B01E0CFE22FF0E0E95C40
:1031E000FB4F7490822F86958695869590E0FC0122
:1031F000E95DFB4FA4902770B12C022E02C0B5945C
:10320000A7940A94E2F7E1E0AE22BB24FC01E95E58
:10321000FB4FC490D12C02C0D594C7942A95E2F7F5
:10322000F1E0CF22DD24A114B10419F081EE0E9457
:10323000C009C114D10419F086EE0E94C009872D7F
:103240000E94750ACD2819F086EE0E948F07AB28E0
:1032500009F469CE81EE95CF81E00E94A01603C0EB
:1032600081E00E9465160E94491693CE82E0F5CF58
:10327000053F2CE5120709F461C008F45BC027E2A2
:1032800045EE66EE063F8CE5180709F4A3C49923C2
:1032900009F4C0C41092E1050230ECE51E0708F401
:1032A00030C10631FCE51F0738F098012A5F3C4524
:1032B0002930310508F025C10E948B0B9093300610
:1032C00080932F0600312CE5120709F4E9C008F0BD
:1032D00073C008308CE5180709F4D4C008F045C065
:1032E0000430ECE51E0709F4C1C078F502302CE586
:1032F000120709F4B5C080912F06826003301C4587
:1033000009F4B1C060912F061091300684E090E07E
:103310000E94D128612F81E290E00E94D1280E9472
:10332000E70E37CE27E245EE65EE54C426E241EEC5
:1033300060EE50C427E245EE64EE4CC426E241EE56
:1033400062EE48C428E241E0EFCF06308CE5180772
:1033500009F494C080912F06886007301C4508F45A
:1033600082C080912F0680627EC080912F068D7F63
:103370000C30ECE51E0709F476C070F480912F063E
:103380008C600A302CE5120709F46DC008F47EC089
:1033900080912F068E7F67C00E308CE5180709F4E8
:1033A0007BC080912F068B7F0F301C4508F45BC0DB
:1033B00080912F068F7E57C00B3FECE51E0709F466
:1033C00059C030F503312CE5120709F471C078F4C7
:1033D00001318CE5180709F467C002311C4509F07A
:1033E00091CF0E94E70E80912F068F773CC0053168
:1033F000ECE51E0709F464C008F478C0809130063B
:1034000081600A3F1C4509F07DCF809330067ACF5A
:103410000F3F3CE5130709F44FC088F48091300654
:103420008D7F0D3F9CE5190781F3809130068E7FDB
:103430000E3F1C4550F3809130068360E6CF01308B
:10344000FDE51F0709F45BC008F446C060E00230E8
:103450001D4509F057CF8EE090E00E94D12852CF51
:1034600080912F06816080932F064CCF80912F068C
:103470008460F9CF809130068260C7CF80912F069B
:103480008061F1CF80912F068064EDCF0E94E70E1E
:1034900080912F068068E7CF80912F06877FE3CF4A
:1034A00080912F068F7DDFCF80912F068F7BDBCF22
:1034B00080912F06837FD7CF809130068C7FA5CF58
:1034C00080912F0682FB992790F921E0922790FBAB
:1034D00082F990FB83F9C7CF80913006982F9095A1
:1034E00091708E7F892B90FB81F98FCF0E94E70E20
:1034F00090912F06892F97FB87F98058B4CF61E010
:10350000AACF809123060631ECE51E0709F08EC391
:103510008A7A91E009F490E09093E205811106C067
:1035200089E20E948C060E941C0633CD85E3F9CF08
:1035300085E379C38091560680FF1BC08E7F809300
:1035400056066091560670915706809158069091E4
:1035500059060E94A30E10924D06FFEF20E732E0BD
:10356000F15020403040E1F700C000000E94E4111B
:1035700010CD81608093560661E086950E949D156E
:1035800008CD4CEC56E165ED76E10E94EC0701CDEB
:1035900045ED56E16CEC76E1F8CF4FEB50E268EC8C
:1035A00070E2F3CF48EC50E26FEB70E2EECF47EA07
:1035B00050E263EB70E2E9CF43EB50E267EA70E27E
:1035C000E4CF4FE850E26BE970E2DFCF4BE950E225
:1035D0006FE870E2DACF46EC5EE065EB7EE0D5CFD7
:1035E00045EB5EE066EC7EE0D0CF61E081E0C6CFE7
:1035F00065E082E00E94DF16CCCC68E086E0FACF7E
:103600006EE089E0F7CF64E18FE0F4CF67E185E118
:10361000F1CF61E088E1B2CF62E289E1EBCF61E016
:1036200083E2ACCF01158CE5180709F447C00E3DC5
:103630001C4509F450C0F70100811181992309F458
:103640004DC0C8010E94570DD82E682FC8010E9496
:10365000E706B8018D2D0E94CD0B8C01882EF70155
:10366000A580A2943FE0A322D280D110109222061E
:1036700080912006877099F0DD2089F0812F807F6E
:10368000803421F080E2800F883048F082E00E9490
:103690008816809120068770CC24C3948111C12C98
:1036A000B12EB2942FE0B222FBE0FB1508F450C01B
:1036B000EB2DF0E0EE57F64D0C943E280E94E70EFD
:1036C000FFEF24E33CE0F15020403040E1F700C040
:1036D00000000E949C090E94400E5BCCC8010E9421
:1036E000C006D82EB6CF212F2F70A22E107F19F032
:1036F000A29490EFA922DD20C9F0AA2069F080E20F
:10370000800F883010F081100BC080912306A82A0A
:10371000A09223060E941C06802F0E94C00918C098
:1037200080912206A82AA0922206F4CF802F0E9420
:103730008F07AA2069F0A094005E083010F0811075
:103740003DC080912306A822A09223060E941C0659
:10375000EB2DE850FF0B349720F40E9483070E9462
:10376000C616CC2009F45ACB8091200680FD56CB9A
:10377000F70112828595859585950E94A016C7014F
:103780000E94ED16809120068595859585950F9070
:103790000F900F900F900F90DF91CF911F910F918D
:1037A000FF90EF90DF90CF90BF90AF909F908F9061
:1037B0007F906F905F904F900C94651680912206D9
:1037C000A822A0922206C2CF312F3F70932E107FE5
:1037D000103219F0929480EF9822882071F081E0E5
:1037E000881661F1DD20B9F1AA2071F1F701858118
:1037F00080FF92CF8F70858327C0DD2091F090915C
:103800002406892D892BA11003C00E942807A0CF70
:10381000E1E0AE12FACF981709F49ACF809324060C
:1038200097CFA11006C00E941606892D0E941D0781
:103830008FCFF1E0AF1609F48BCFF5CFDD2031F05B
:1038400025E02A1508F484CF892DDFCF34E03A151E
:1038500008F47ECFEACFAA2041F3F9E38F1290C19A
:103860002FEF37EE83E0215030408040E1F700C079
:10387000000086C1812F86958695837061F0813026
:1038800009F066CFC8019370D11002C090E080E0CB
:103890000E9432075DCFC8019370D11002C090E042
:1038A00080E00E94480754CF802FDD2029F00E943D
:1038B0007D050E9400064CCF0E94BC04FACF812FE8
:1038C000837009F066C0D11043CF802F8295869512
:1038D0008770880F880F602F6F70462E512C712CC7
:1038E000612C082E04C0440C551C661C771C0A94DD
:1038F000D2F740E050E0BA0104FF0FC04FE050E0C3
:1039000060E070E004C0440F551F661F771F8A9562
:10391000D2F74095509560957095812F8695869544
:103920008370823019F1D8F4009125061091260693
:103930002091270630912806813069F044295529C5
:1039400066297729CB01BA0160237123822393234F
:103950000E947907FDCE402A512A622A732ACB01A0
:10396000BA016429752986299729F2CF4429552956
:1039700066297729009125061091260620912706B1
:1039800030912806CB01BA0160277127822793273F
:10399000DFCF8695DD2011F0812F8170882309F417
:1039A000D7CE802F829586958770880F880F602FDD
:1039B0006F70462E512C712C612C082E04C0440CC3
:1039C000551C661C771C0A94D2F740E050E0BA01FF
:1039D00004FF0FC04FE050E060E070E004C0440F0F
:1039E000551F661F771F8A95D2F7409550956095B1
:1039F0007095812F869586958370823019F1D8F461
:103A000000918B0610918C0620918D0630918E06C8
:103A1000813069F04429552966297729CB01BA01FB
:103A200060237123822393230E94FC1591CE402AA8
:103A3000512A622A732ACB01BA0164297529862981
:103A40009729F2CF442955296629772900918B06B9
:103A500010918C0620918D0630918E06CB01BA0113
:103A60006027712782279327DFCF1F70DD2029F081
:103A7000812F0E94A016802FC8CE802F0E941D0784
:103A8000812F0E94651664CE802F92EF891609F46B
:103A900050C0981578F0E0EF8E1619F1F1EF8F16FF
:103AA00009F43FC0DD2009F466C0A11035CE812F96
:103AB0008F713CC023EF821609F440C034EF8312AB
:103AC000F1CFDD2009F44CC01F71812F0E94A01698
:103AD000E8E01E9FC0011124836080932006812F9F
:103AE00025C0DD20C9F084E08A1508F431CE1F71AD
:103AF00061E070E080E090E004C0660F771F881FEF
:103B0000991F1A95D2F700918B0610918C0620917F
:103B10008D0630918E06A4CF95E09A1508F418CE44
:103B2000E6CF812F8F71DD2009F4ABCF0E94A01664
:103B30000FCE812F8F71DD20C9F3A3CFDD2069F077
:103B40001F7161E070E080E090E004C0660F771FB5
:103B5000881F991F1A95D2F767CF0E94C116F8CD1A
:103B600081E00E948816F1E0FA1508F0F1CD82E0BC
:103B70000E948816EDCDAA2039F0893309F470CE61
:103B8000802F0E948F07E4CD812F8F717ACF003173
:103B9000FFE51F0709F460CB01312FE5120709F497
:103BA00065CB033F2CE5120709F4C0CB08F060CBCE
:103BB000083D8CE5180709F4B5CB093DECE51E0777
:103BC00009F4C0CB073DFCE51F0709F060CB26E2F6
:103BD00041EE61EEC7010E94880ADBC900313FE572
:103BE000130709F43DCB01318FE51807D1F682E0C8
:103BF00038CB85E0DE01119601900D928A95E1F7B0
:103C0000F701228189819A8121111EC90E94C00673
:103C1000182F22C906311C4509F00DCD8091E2050F
:103C2000811186CC89E20E9461067DCC8272F80106
:103C3000E25CFC45E431F10508F0F4CCE257F64DC6
:103C40000C943E281F93CF93DF938091E805807FEB
:103C5000A9F48091E505882389F080911A06D09116
:103C6000E9056091E3057091E405A091E605B09146
:103C7000E705C62FC72316E0D81304C0DF91CF9104
:103C80001F91089590E0109711F0CF3F19F401961D
:103C90008770F2CF189F9001199F300D1124F90100
:103CA000E651FA4F41814713F2CF40814613EFCFDF
:103CB00042814111ECCF438154814A1B5B0B483C4C
:103CC000510528F78091E8058F7080618093E805A1
:103CD000F901E151FA4F80818F708061808383EE1A
:103CE00095E00E94ED16DF91CF911F910C94130780
:103CF000AF92BF92CF92DF92EF92FF920F931F93FA
:103D0000CF93DF93CDB7DEB761970FB6F894DEBFE0
:103D10000FBECDBF8C0185E0F801DE011D9601903C
:103D20000D928A95E1F7F80180819181E28023EE7E
:103D3000A22E25E0B22E6091E6057091E70561158F
:103D4000710509F43EC13091E3054091E405232F4C
:103D500024232F3F09F435C1C380D480F090E505BA
:103D6000F601E61BF70BFF2009F4FBC02091E805E4
:103D7000522F507FE83CF10508F0BBC0511178C0CC
:103D8000FE2C491321C038131FC0E1101DC02F7035
:103D900020612093E805C5010E94ED168091E80599
:103DA000F80185838F2D61960FB6F894DEBF0FBEA4
:103DB000CDBFDF91CF911F910F91FF90EF90DF90DA
:103DC000CF90BF90AF900895CD2829F0282F2923B8
:103DD0002F3F09F014C120E0F22FF170DF2E20FFF9
:103DE0003DC020911A064091E90556E0241315C004
:103DF0008D879E878D859E850E94990D292F2295FE
:103E00002F702230F8F0243020F59F70F9F0F8017F
:103E10009581907FD9F4D12C1FC030E0529FF001E2
:103E2000539FF00D1124E651FA4F6181961306C09D
:103E30006081861303C06281E61210C02F5F3F4F7E
:103E40002770D4CF9F7011F0882329F3805E8830CB
:103E500010F3C8010E94ED16FD2CA4CFEE2009F44A
:103E6000A1CF8091E80581608093E805F12C9ACF7D
:103E7000491312C0381310C0E1100EC0F801258399
:103E8000C8010E94ED1686E0F801A3EEB5E00190AE
:103E90000D928A95E1F786CF8D879E878D859E85C9
:103EA0000E94A30D882309F1EE20F9F08091E80526
:103EB000803270F02091E3053091E40538872F833C
:103EC0001986DB86CA868C87CE0107960E94ED167E
:103ED00086E0F801A3EEB5E001900D928A95E1F736
:103EE0000E94221EFF24F3945DCFC8010E94ED16AC
:103EF000F9CF51110AC083EE95E00E94ED1686E0DD
:103F0000F50111928A95E9F7B1CF49130FC0381323
:103F10000DC0E1100BC0F8012583C8010E94ED1609
:103F200086E0F50111928A95E9F73CCF8D879E874F
:103F30008D859E850E94A30D8823B9F2EE20A9F2FB
:103F40008091E805803220F22091E3053091E4056C
:103F50003A8329831B82DD82CC828E83CE01019637
:103F6000B5CFE83CF105E0F6FE2CEE2009F4BDCF1C
:103F7000491316C0381314C08091E80580FD83CF23
:103F8000982F907F09F47FCFF8018583903F09F443
:103F900077CF982F907F905F8F70892B858370CF1C
:103FA0008D879E878D859E850E94A30D811190CF60
:103FB0008091E80581608093E805C8010E94ED16B4
:103FC000F1CEEE2009F491CF8D879E878D859E8559
:103FD0000E94A30DF82E882309F487CF86E0F8010C
:103FE000A3EEB5E001900D928A95E1F78091E3058B
:103FF0009091E4050E94990D0E94221ED3CE21E0EB
:104000002E25EACE1F93CF93DF93CDB7DEB7679708
:104010000FB6F894DEBF0FBECDBF4B8B5C8B6D8BA4
:104020007E8B8F8B1A8A198A85E0FE017396DE01DA
:104030001D9601900D928A95E1F786E0FE013D966E
:10404000DE01179601900D928A95E1F7CE01079651
:104050000E94781E882389F016E080911A069091BC
:10406000E905891349C067960FB6F894DEBF0FBE05
:10407000CDBFDF91CF911F91089586E0FE01379665
:10408000DE01119601900D928A95E1F78A859B8554
:10409000892B11F38F81988589238F3FE9F2209135
:1040A000E90530E0C90101968770992740911A0609
:1040B0004817190671F40E94E70E1092E905109254
:1040C0001A0686E0E3EEF5E0DF011D928A95E9F736
:1040D000C3CF96E0929FD001939FB00D1124A651BB
:1040E000BA4FFE01319601900D929A95E1F78093B7
:1040F000E9050E941307B0CF819FC00111248651AA
:104100009A4F0E94781E882309F4ADCF80911A0639
:1041100090E001968770992780931A069ECFE6E576
:10412000F6E0438128E0421B08F440E021E0628190
:1041300081810C940815E6E5F6E0438128E0420F02
:1041400008F44FEF21E0628181810C940815E6E5C7
:10415000F6E0628128E0621B08F460E021E0438120
:1041600081810C940815E6E5F6E0628128E0620F93
:1041700008F46FEF21E0438181810C940815E6E596
:10418000F6E0818121E04381628188500C9408151A
:10419000E6E5F6E0818121E043816281885F0C944D
:1041A00008151F920F920FB60F9211242F933F9371
:1041B0004F935F936F937F938F939F93AF93BF932F
:1041C000CF93DF93EF93FF93D091E900DF7080915D
:1041D000EC00C82FC17080FDC0E81092E90080910A
:1041E000F000877F8093F00078940E94FC0E10927C
:1041F000E9008091F00088608093F000CD2BCF70B3
:10420000C093E900FF91EF91DF91CF91BF91AF9102
:104210009F918F917F916F915F914F913F912F91DE
:104220000F900FBE0F901F9018951F920F920FB610
:104230000F9211242F933F934F935F936F937F932C
:104240008F939F93AF93BF93EF93FF938091E10080
:1042500082FF09C08091E20082FF05C08091E100E9
:104260008B7F8093E1008091DA0080FF24C08091F1
:10427000D80080FF20C08091DA008E7F8093DA0022
:104280008091D90080FFB2C080E189BD82E189BD03
:1042900009B400FEFDCF81E080938A068091550627
:1042A000811109C00E94FE020E94F1038091E20088
:1042B00084608093E2008091E10080FF17C08091CC
:1042C000E20080FF13C08091E2008E7F8093E200C5
:1042D0008091E20080618093E2008091D80080624A
:1042E0008093D80019BC85E080938A068091E10014
:1042F00084FF40C08091E20084FF3CC080E189BD22
:1043000082E189BD89B5982F917080FFFBCF8091A4
:10431000D8008F7D8093D8008091E1008F7E8093BC
:10432000E1008091E2008F7E8093E2008091E200C4
:1043300081608093E20080918106882309F45CC04B
:1043400084E080938A060E94E70E0E9483070E9401
:10435000C61610925C0680915B06882349F0809116
:10436000560681608093560660E086950E949D15F2
:104370000E94CE118091E10083FF27C08091E2006E
:1043800083FF23C08091E100877F8093E10082E07A
:1043900080938A06109281068091E1008E7F80933F
:1043A000E1008091E2008E7F8093E2008091E20044
:1043B00080618093E20042E060E080E00E94BF0301
:1043C0008091F00088608093F000FF91EF91BF91A1
:1043D000AF919F918F917F916F915F914F913F919D
:1043E0002F910F900FBE0F901F90189519BC10922F
:1043F0008A06109255065FCF8091E30087FD93E017
:1044000090938A06A0CFCDB7DEB7AA970FB6F894DF
:10441000DEBF0FBECDBF84B7877F84BF0FB6F894D1
:10442000A895809160008861809360001092600080
:104430000FBE80E890E00FB6F894809361009093EF
:1044400061000FBE85B7806885BF85B7806885BF6E
:104450000E94FE020E94F1038091E200846080933A
:10446000E200789480918A068823A1F01091E900F7
:104470001F709091EC00892F817090FD80E8182BBF
:104480001092E9008091E80083FD0E94FC0E1F70ED
:104490001093E90082E084BD93E095BD9AEF97BD4B
:1044A00080936E008098889A24982C9AAEE7B1E0A9
:1044B00042E851E061E070E08D91E82FE295EF7005
:1044C000F0E011A18F709B0101C0220F8A95EAF7DD
:1044D000922F9095912391A382A1822B82A34A17B8
:1044E0005B0751F710922A0610924F0610922B0686
:1044F000109250060E94EC0A8FE39CE90197F1F7B5
:1045000000C000000E94EC0A80914F0680FF0BC0A3
:1045100080E00E94280E6FEF7FEF90E080E00E9425
:10452000EF280E949C0990E080E00E94CB288C3EFE
:104530009E4F11F00E94400E82E290E00E94BD2842
:10454000823209F0EEC483E290E00E94BD288230FE
:1045500009F0E7C484E290E00E94BD28883209F0A7
:10456000E0C490E080E00E94CB288C3E9E4F11F08A
:104570000E94400E82E090E00E94BD288093490690
:104580000E948B0B9093300680932F0683E090E07F
:104590000E94BD28682F70E090E080E00E947907BB
:1045A00080912C06811136C090E080E00E94CB28DB
:1045B0008C3E9E4F21F00E94400E0E94D70E88E054
:1045C00090E00E94C528609356067093570680932A
:1045D0005806909359066E7F71F40E94D70E88E0BA
:1045E00090E00E94C528609356067093570680930A
:1045F0005806909359060E94F10710924D0680913B
:10460000560680FF04C060E086950E949D1581E0FB
:1046100080932C0660912F06606860932F0610919E
:10462000300684E090E00E94D128612F81E290E082
:104630000E94D12887EB94E090932E0680932D065C
:1046400085E191E0909332068093310644ECE42EAC
:1046500044E0F42E80918A06853009F4C4C10E949A
:10466000EC0A90914F0680914A06891761F0282F35
:10467000292780E011E0312F322309F021C28F5F1A
:10468000110F8430C1F79091500680914B06891725
:1046900009F41FC2282F292780E011E0322F31238F
:1046A00009F412C221E0CC24C394D12C89A32AA3FB
:1046B000912381E009F480E08BA30E94F4058160DE
:1046C000782F9DA38CA349A15AA16BA18DA10E9413
:1046D0000220F601E65BF94F808118271083809154
:1046E0004D06882309F441C080914C06E09156069E
:1046F000E695E81BE0933706823009F0FBC1F0E055
:10470000EE52FB4FE4910E2F10E084EEC82E84E1B0
:10471000D82E80913806882389F0109238060E949E
:10472000F405980120953095820F931F90933606DB
:104730008093350610923A0610923906809135061C
:10474000909136060E94E5058017910770F0E09180
:104750003506F09136060E0F1F1F10933606009394
:10476000350685E396E0F6010995809134068823A5
:10477000F1F090E080E00E94E505892BC1F010E0A7
:1047800000E08091340690E0002E02C09595879558
:104790000A94E2F780FF04C060E0802F0E94D815E1
:1047A0000F5F1F4F0830110561F71092340686E045
:1047B000E2E4F6E0DE01119601900D928A95E1F7B0
:1047C0008091440690914506892B09F468C0809138
:1047D0004006909141060E94E5059C0190913F069C
:1047E000992309F4B9C32333310508F458C09F3F16
:1047F00019F09F5F90933F0610924606109247066D
:1048000080914406181624F40E945D0580934406A6
:104810008091440687FF05C00E945D0581958093C5
:10482000440680914506181624F40E945D05809385
:1048300045068091450687FF05C00E945D0581956C
:1048400080934506309144063323B1F0209145060C
:10485000222391F045EB3403C0011124992309F47C
:10486000B4C19093440645EB2403900111243323F3
:1048700009F4AFC1309345060E94000680913D06C1
:1048800090913E06909341068093400686E0FE019B
:104890003196A2E4B6E001900D928A95E1F78091FD
:1048A000460690914706892B09F468C080913B0623
:1048B00090913C060E94E5059C0190913F0699234A
:1048C00009F445C32536310508F458C09F3F19F057
:1048D0009F5F90933F061092440610924506809188
:1048E0004606181624F40E943B05809346068091E4
:1048F000460687FF05C00E943B05819580934606CA
:1049000080914706181624F40E943B0580934706C1
:104910008091470687FF05C00E943B0581958093E3
:104920004706309146063323B1F0209147062223F3
:1049300091F045EB3403C0011124992309F44DC1D2
:104940009093460645EB240390011124332309F488
:1049500048C1309347060E94000680913D06909121
:104960003E0690933C0680933B0686E0FE0131961E
:10497000A2E4B6E001900D928A95E1F70E948307C8
:1049800090914806891731F00E948307809348066A
:104990000E94C61680918A06843009F05BCE83E0BF
:1049A0008093E9008091E80082FF54CE8091E80076
:1049B00090E085FF06C00E941D03882309F415C1FD
:1049C00091E08091E8008B778093E800992309F4C7
:1049D00041CEE981E150E33108F05AC1F0E0EE55F3
:1049E000F64D0C943E2880918A06843009F444C028
:1049F0001092330688E190E020E40FB6F894A89571
:104A0000809360000FBE2093600080E00E94C61675
:104A100010924D0680915C06811117C081E0809351
:104A20005C0680915606982F917090935B068E7F5E
:104A3000809356064FEF80E792E0415080409040CF
:104A4000E1F700C000000E94E41183B7817F846019
:104A500083BF83B7816083BF7894889583B78E7F47
:104A600083BF0FB6F894A895809160008861809309
:104A70006000109260000FBE80918006882309F4C8
:104A8000E9CD0E94EC0A8091500690914F06892B47
:104A900009F4E0CD80E189BD82E189BD09B400FE61
:104AA000FDCF8091D8008F7D8093D8008091E00069
:104AB00082608093E0008091E00081FDFCCFCACD50
:104AC00020E0D12CC12CF2CD8F5F110F843009F082
:104AD000E5CD8FEF8EA38FA318A60E94F405816009
:104AE000782F9AA789A74EA15FA168A58AA50E94E1
:104AF0000220F5CD863059F4F0E0E153FB4FE4910C
:104B00000E2F10E0B8EFCB2EB4E1DB2E02CE8930B1
:104B100061F4E695F0E0E453FB4FE4910E2F10E0D2
:104B2000A7E2CA2EA3E1DA2EF4CD8F3061F4E69528
:104B3000F0E0E753FB4FE4910E2F10E0F1E5CF2EAC
:104B4000F3E1DF2EE6CD853159F4F0E0EA53FB4F77
:104B5000E4910E2F10E0EFEBCE2EE3E1DE2ED9CD67
:104B600008EE13E05DE0C52E54E1D52E883109F43E
:104B7000D0CD833241F4F701059114917BE8C72E23
:104B800074E1D72EC6CD04EF11E041E4C42E44E118
:104B9000D42E843209F4BDCD00ED17E038EBC32EDE
:104BA00034E0D32E853209F0B4CD8E2F63E00E941D
:104BB000FC27E92FF0E0EF53FB4FE4910E2F10E0BC
:104BC0006EE9C62E62E1D62EA4CD81E08093440624
:104BD0004ACE81E0809345064FCE81E08093460621
:104BE000B1CE81E080934706B6CE00E210E0CE0160
:104BF00001966C018091E80085FD0AC08091E80073
:104C00008B778093E8000E941D03882399F3D8CE08
:104C10008091F100F60181936F010150110951F764
:104C2000CFCE1A8289E08B8319C08A81823009F441
:104C300085C18330C1F0813059F52FB7F894609168
:104C400051067091520680915306909154062FBFE1
:104C50000E9444286B837C838D839E83CE010196C2
:104C60000E947803F7CC80914F068B838091500689
:104C70008C83F4CF8A81823059F46B817C818D8161
:104C80009E810E94442885E290E00E94D128E6CFD0
:104C90008FEF8983E3CF4C816B818A810E94990BCE
:104CA0009827892798279E838D83D8CFCD80DE8053
:104CB000DC24CD24DC240A81F0E10F9F8001112443
:104CC0008B8128E0829FC0011124080F191F8C815D
:104CD00090E0880F991F080F191F6D2DC801869647
:104CE0000E94D1286C2DC8018796CFCF0E94C70D96
:104CF000B5CF8A818138C1F060F4803809F0AECF39
:104D000020E04B8160915806809157060E9408155B
:104D1000A5CF823859F1833809F0A0CF20E0409127
:104D200059066C818B81F2CF60E08B810E949D15CA
:104D30009B8180915606911111C08E7F80935606FB
:104D400010924D064FEF80E792E041508040904036
:104D5000E1F700C000000E94E41180CF81608093E1
:104D6000560660E086950E949D1578CF8B818093D2
:104D70005A0674CF8A81813891F030F4803809F076
:104D80006DCF809159064FCF823889F0833809F072
:104D900065CF809157068B838091580669CF8091AB
:104DA000560680FF02C086953ECF80E03CCF8091C2
:104DB0005A0639CF60915606709157068091580671
:104DC000909159060E94A30E49CF80E18A8346CF75
:104DD00083E08A838AE627CF0A811B811027012777
:104DE0001027FE0131966F01AC80CF018A0D911D15
:104DF0005C01C8018A569F4FCA14DB0409F42ECF08
:104E00000A36E3E01E0750F40E94BD28F6018483B1
:104E10000F5F1F4FFFEFCF1ADF0AEBCFF6011482AF
:104E2000F7CF0A811B81102701271027CE01019699
:104E30005C01CC80C00ED12ED11CC8018A569F4F78
:104E40000C151D0509F40ACF0A36E3E01E0720F40D
:104E5000F50164810E94D128FFEFAF1ABF0A0F5FEE
:104E60001F4FEBCF0E94180EF9CE87E0AFCF0A811B
:104E70001B81102701271027CE0101966C01AC8001
:104E8000FC01EA0DF11D5F01C8018696AC14BD045A
:104E900009F4E4CE0037110550F40E94BD28F60154
:104EA00084830F5F1F4FFFEFCF1ADF0AEDCFF601AC
:104EB0001482F7CF0A811B81102701271027CE010A
:104EC00001965C01CC80C00ED12ED11CC801869603
:104ED000C016D10609F4C2CE0037110520F4F50141
:104EE00064810E94D128FFEFAF1ABF0A0F5F1F4FE6
:104EF000EDCF80E00E94280E6FEF7FEF90E080E022
:104F00000E94EF28ABCECE0101960E9478032FEFCE
:104F100041EE84E0215040408040E1F700C00000B5
:104F200000CB60E085E290E00E94D1280E94C70D8E
:104F30000E94180E81E00E94280E13CB85E290E0BB
:104F40000E94BD281B821C821D828E8387CE2D323B
:104F5000314008F0BDCC12CD2D32314008F049CCA3
:104F60009ECC78941F921FB61F9211248F939F930B
:104F7000AF93BF938091510690915206A091530632
:104F8000B09154060196A11DB11D809351069093D6
:104F90005206A0935306B0935406BF91AF919F91D0
:104FA0008F911F901FBE1F9018951F921FB61F92C2
:104FB00011248F939F93AF93BF93809133068111F8
:104FC00013C08091510690915206A0915306B09162
:104FD00054064196A11DB11D80935106909352062F
:104FE000A0935306B0935406BF91AF919F918F91B8
:104FF0001F901FBE1F901895991B79E004C0991F40
:10500000961708F0961B881F7A95C9F78095089522
:1050100087FB082E062687FD819567FD61950E9416
:10502000FC270EF4919507FC81950895AA1BBB1BE4
:1050300051E107C0AA1FBB1FA617B70710F0A61B98
:10504000B70B881F991F5A95A9F780959095BC01B9
:10505000CD01089597FB072E16F4009407D077FD35
:1050600009D00E94162807FC05D03EF49095819542
:105070009F4F0895709561957F4F0895EE0FFF1F24
:105080000590F491E02D09946927962769277827E0
:105090008727782708958F929F92AF92BF92CF92E1
:1050A000DF92EF92FF92CF93DF93EC0168817981D9
:1050B0008A819B81611571058105910521F464E266
:1050C00079ED8BE597E02DE133EF41E050E00E9470
:1050D000052949015A019B01AC01A7EAB1E40E94EC
:1050E00024296B017C01ACEEB4EFA50194010E9470
:1050F0003229DC01CB018C0D9D1DAE1DBF1DB7FFFC
:1051000003C00197A109B04888839983AA83BB8310
:105110009F77DF91CF91FF90EF90DF90CF90BF907E
:10512000AF909F908F9008950E944B28089580E043
:1051300091E00E944B280895B0E0A0E08093000128
:1051400090930101A0930201B09303010895FB0124
:10515000DC0102C005900D9241505040D8F70895EF
:10516000FC014150504030F001900616D1F73197C4
:10517000CF010895882799270895F999FECF92BD08
:1051800081BDF89A992780B50895A6E1B0E044E082
:1051900050E00C94F728A8E1B0E042E050E00C9415
:1051A000F728262FF999FECF92BD81BDF89A019775
:1051B00000B4021639F01FBA20BD0FB6F894FA9A5F
:1051C000F99A0FBE08950396272F0E94D2280E94B5
:1051D000D128252F0E94D228242F0C94D228019662
:1051E000272F0E94D2280C94D128DC01CB01FC018E
:1051F000F999FECF06C0F2BDE1BDF89A319600B430
:105200000D9241505040B8F70895052E97FB1EF4BB
:1052100000940E941C2957FD07D00E94372907FCE3
:1052200003D04EF40C941C2950954095309521954F
:105230003F4F4F4F5F4F08959095809570956195C2
:105240007F4F8F4F9F4F08950E945929A59F900D22
:10525000B49F900DA49F800D911D11240895B7FF58
:105260000C9424290E942429821B930B0895A1E207
:105270001A2EAA1BBB1BFD010DC0AA1FBB1FEE1FD0
:10528000FF1FA217B307E407F50720F0A21BB30B1B
:10529000E40BF50B661F771F881F991F1A9469F797
:1052A00060957095809590959B01AC01BD01CF01F3
:1052B0000895A29FB001B39FC001A39F700D811DEF
:1052C0001124911DB29F700D811D1124911D08950F
:1052D000F894FFCFB20DB20DBB0DBB0DBD0DBB0DD4
:1052E000BB0DBB0DB20DB20DC20DBB0DBB0DC20D82
:1052F000E10F09105C1009105C103C1074105C1078
:105300007C118911731B731BE41BE41B3A1C541C96
:10531000A81BA81B5F1C351D441D441D9A1AC11AE9
:10532000C81ACD1AD21AD71ADC1AE11AE61AEB1AE1
:10533000F01AF51AF81AFD1A001B031B061B091BAD
:105340000C1B0F1B112615263A264B2656267626B1
:105350007926BA26DA2679278327E526E826EC2659
:0A53600011273227352737275A2777
:10536A000100000001191A1B1C1D1E1F2021220109
:10537A0002D805DE02B90456092B092709150901C5
:10538A000001020202020606060909090909090FB3
:10539A000F0F0F0F0F1515151819191919191919B2
:1053AA001919192324252525252525818283E2001B
:1053BA00E900EA00B500B600B700CD008301CC00D1
:1053CA008A01920194012102230224022502260263
:1053DA0027022A02B300B4006F007000F034F6F717
:1053EA0093964022BCB2019001D400E80401052141
:0253FA000500AC
:00000001FF
